:10000000A5EF00F00000000000EF00F0000000008D
:0A0010000000000000000000F3D71C
:10001C000134083609360450085E0550D8A0053C5A
:10002C00095E003601360F0E0C6E013408360936A7
:10003C00045000A006D0085E0550D8A0053C095E0F
:10004C0005D008260550D8B0053C092600360136E7
:10005C000C2EEBD700B006D0045008260550D8B0B3
:08006C00053C0926000012000A
:100074000450000A08E10550000A05E1FF0E006E75
:100084007F0E016E57D00D6A096A086A015000108C
:10009400D8B4000C015005180A6E0ABE0D1E0B6A76
:1000A40005AE05D0041E051E042AD8B4052A01AEE7
:1000B40005D0001E011E002AD8B4012A01500510E3
:1000C4000A6E0ABE10D0A8DF0BB020D00DAE000C13
:1000D400001E011E002AD8B4012A081E091E082A7F
:1000E400D8B4092A000C05AE0DD001BE07D00150CA
:1000F400096E0050086E016A006AE8D7016A006A56
:10010400002A000C011E001E0B2ADDD7082AD8B4D1
:10011400092A0450085CD8A4D9D70550095CD8A48E
:10012400D5D7096A086A002AD8B4012A01AECED705
:060134000000FF0C1200A8
:10013A000900F5CFE6FF0006FBE10106F9E112002E
:10014A00C00E156EF90E166EA40E176EB00E186E4E
:10015A00990E196E920E1A6E820E1B6EF80E1C6E96
:10016A00800E1D6E900E1E6E216A226A0F0EC16EDF
:10017A00070EB46E936A946AFF0E956EFF0E816E37
:10018A00FF0E826E83B021D0030E0B6E8A0E0C6EA8
:10019A00550E0D6E0D2EFED70C2EFCD70B2EFAD750
:1001AA000000000083B211D0800E2218006E800E6B
:1001BA00005C02E1630E215C02E2214A222A83A04A
:1001CA0003D083A201D001D0FAD783B223D0030E81
:1001DA000B6E8A0E0C6E550E0D6E0D2EFED70C2E62
:1001EA00FCD70B2EFAD70000000083B013D0800E84
:1001FA00006E800E2218005C02E12150000804E221
:10020A00010E215E000E225A83A003D083A201D0E0
:10021A0001D0FAD70A0E046E000E056E21C000F056
:10022A0022C001F022DF00C023F001C024F00A0E30
:10023A00046E000E056E21C000F022C001F015DF29
:10024A0008C000F009C001F000C01FF001C020F092
:10025A0082908282150E2324E96E000E2420EA6E13
:10026A00EECF81FF210E0C6E760E0D6E0D2EFED78F
:10027A000C2EFCD7000082808292150E1F24E96E94
:10028A00000E2020EA6EEECF81FF210E0C6E760E54
:10029A000D6E0D2EFED70C2EFCD7000073D7FFD79C
:020000040030CA
:0D000100220F0EFFFF81FF0FC00FE00F4028
:00000001FF
